{
  "_format": "hh-sol-artifact-1",
  "contractName": "Marketplace",
  "sourceName": "contracts/Marketplace.sol",
  "abi": [
    {
      "inputs": [],
      "stateMutability": "nonpayable",
      "type": "constructor"
    },
    {
      "anonymous": false,
      "inputs": [
        {
          "indexed": true,
          "internalType": "uint256",
          "name": "listingId",
          "type": "uint256"
        }
      ],
      "name": "ListingCancelled",
      "type": "event"
    },
    {
      "anonymous": false,
      "inputs": [
        {
          "indexed": true,
          "internalType": "uint256",
          "name": "listingId",
          "type": "uint256"
        },
        {
          "indexed": true,
          "internalType": "address",
          "name": "seller",
          "type": "address"
        },
        {
          "indexed": true,
          "internalType": "address",
          "name": "nftContract",
          "type": "address"
        },
        {
          "indexed": false,
          "internalType": "uint256",
          "name": "tokenId",
          "type": "uint256"
        },
        {
          "indexed": false,
          "internalType": "uint256",
          "name": "price",
          "type": "uint256"
        }
      ],
      "name": "NFTListed",
      "type": "event"
    },
    {
      "anonymous": false,
      "inputs": [
        {
          "indexed": true,
          "internalType": "uint256",
          "name": "listingId",
          "type": "uint256"
        },
        {
          "indexed": true,
          "internalType": "address",
          "name": "buyer",
          "type": "address"
        },
        {
          "indexed": true,
          "internalType": "address",
          "name": "seller",
          "type": "address"
        },
        {
          "indexed": false,
          "internalType": "uint256",
          "name": "price",
          "type": "uint256"
        }
      ],
      "name": "NFTSold",
      "type": "event"
    },
    {
      "inputs": [
        {
          "internalType": "uint256",
          "name": "listingId",
          "type": "uint256"
        }
      ],
      "name": "buyNFT",
      "outputs": [],
      "stateMutability": "payable",
      "type": "function"
    },
    {
      "inputs": [
        {
          "internalType": "uint256",
          "name": "listingId",
          "type": "uint256"
        }
      ],
      "name": "cancelListing",
      "outputs": [],
      "stateMutability": "nonpayable",
      "type": "function"
    },
    {
      "inputs": [],
      "name": "fee",
      "outputs": [
        {
          "internalType": "uint256",
          "name": "",
          "type": "uint256"
        }
      ],
      "stateMutability": "view",
      "type": "function"
    },
    {
      "inputs": [
        {
          "internalType": "uint256",
          "name": "listingId",
          "type": "uint256"
        }
      ],
      "name": "getActiveListing",
      "outputs": [
        {
          "components": [
            {
              "internalType": "address",
              "name": "seller",
              "type": "address"
            },
            {
              "internalType": "address",
              "name": "nftContract",
              "type": "address"
            },
            {
              "internalType": "uint256",
              "name": "tokenId",
              "type": "uint256"
            },
            {
              "internalType": "uint256",
              "name": "price",
              "type": "uint256"
            },
            {
              "internalType": "bool",
              "name": "active",
              "type": "bool"
            }
          ],
          "internalType": "struct Marketplace.Listing",
          "name": "",
          "type": "tuple"
        }
      ],
      "stateMutability": "view",
      "type": "function"
    },
    {
      "inputs": [
        {
          "internalType": "address",
          "name": "nftContract",
          "type": "address"
        },
        {
          "internalType": "uint256",
          "name": "tokenId",
          "type": "uint256"
        },
        {
          "internalType": "uint256",
          "name": "price",
          "type": "uint256"
        }
      ],
      "name": "listNFT",
      "outputs": [],
      "stateMutability": "nonpayable",
      "type": "function"
    },
    {
      "inputs": [
        {
          "internalType": "uint256",
          "name": "",
          "type": "uint256"
        }
      ],
      "name": "listings",
      "outputs": [
        {
          "internalType": "address",
          "name": "seller",
          "type": "address"
        },
        {
          "internalType": "address",
          "name": "nftContract",
          "type": "address"
        },
        {
          "internalType": "uint256",
          "name": "tokenId",
          "type": "uint256"
        },
        {
          "internalType": "uint256",
          "name": "price",
          "type": "uint256"
        },
        {
          "internalType": "bool",
          "name": "active",
          "type": "bool"
        }
      ],
      "stateMutability": "view",
      "type": "function"
    },
    {
      "inputs": [],
      "name": "nextListingId",
      "outputs": [
        {
          "internalType": "uint256",
          "name": "",
          "type": "uint256"
        }
      ],
      "stateMutability": "view",
      "type": "function"
    },
    {
      "inputs": [],
      "name": "owner",
      "outputs": [
        {
          "internalType": "address",
          "name": "",
          "type": "address"
        }
      ],
      "stateMutability": "view",
      "type": "function"
    },
    {
      "inputs": [
        {
          "internalType": "uint256",
          "name": "newFee",
          "type": "uint256"
        }
      ],
      "name": "updateFee",
      "outputs": [],
      "stateMutability": "nonpayable",
      "type": "function"
    },
    {
      "inputs": [],
      "name": "withdrawFees",
      "outputs": [],
      "stateMutability": "nonpayable",
      "type": "function"
    }
  ],
  "bytecode": "0x608060405260fa60035534801561001557600080fd5b50600160008190555033600460006101000a81548173ffffffffffffffffffffffffffffffffffffffff021916908373ffffffffffffffffffffffffffffffffffffffff1602179055506118cb8061006e6000396000f3fe6080604052600436106100915760003560e01c80639012c4a8116100595780639012c4a81461015a578063aaccf1ec14610183578063ad05f1b4146101ae578063ddca3f43146101d7578063de74e57b1461020257610091565b80631030f05f14610096578063305a67a8146100d3578063476343ee146100fc57806351ed8288146101135780638da5cb5b1461012f575b600080fd5b3480156100a257600080fd5b506100bd60048036038101906100b89190610ff7565b610243565b6040516100ca91906110f7565b60405180910390f35b3480156100df57600080fd5b506100fa60048036038101906100f59190610ff7565b6103ae565b005b34801561010857600080fd5b506101116104f6565b005b61012d60048036038101906101289190610ff7565b6105f1565b005b34801561013b57600080fd5b50610144610921565b6040516101519190611121565b60405180910390f35b34801561016657600080fd5b50610181600480360381019061017c9190610ff7565b610947565b005b34801561018f57600080fd5b50610198610a26565b6040516101a5919061114b565b60405180910390f35b3480156101ba57600080fd5b506101d560048036038101906101d09190611192565b610a2c565b005b3480156101e357600080fd5b506101ec610e7d565b6040516101f9919061114b565b60405180910390f35b34801561020e57600080fd5b5061022960048036038101906102249190610ff7565b610e83565b60405161023a9594939291906111f4565b60405180910390f35b61024b610f5f565b6001600083815260200190815260200160002060040160009054906101000a900460ff166102ae576040517f08c379a00000000000000000000000000000000000000000000000000000000081526004016102a5906112a4565b60405180910390fd5b600160008381526020019081526020016000206040518060a00160405290816000820160009054906101000a900473ffffffffffffffffffffffffffffffffffffffff1673ffffffffffffffffffffffffffffffffffffffff1673ffffffffffffffffffffffffffffffffffffffff1681526020016001820160009054906101000a900473ffffffffffffffffffffffffffffffffffffffff1673ffffffffffffffffffffffffffffffffffffffff1673ffffffffffffffffffffffffffffffffffffffff16815260200160028201548152602001600382015481526020016004820160009054906101000a900460ff1615151515815250509050919050565b60006001600083815260200190815260200160002090503373ffffffffffffffffffffffffffffffffffffffff168160000160009054906101000a900473ffffffffffffffffffffffffffffffffffffffff1673ffffffffffffffffffffffffffffffffffffffff1614610457576040517f08c379a000000000000000000000000000000000000000000000000000000000815260040161044e90611310565b60405180910390fd5b8060040160009054906101000a900460ff166104a8576040517f08c379a000000000000000000000000000000000000000000000000000000000815260040161049f906112a4565b60405180910390fd5b60008160040160006101000a81548160ff021916908315150217905550817f411aee90354c51b1b04cd563fcab2617142a9d50da19232d888547c8a1b7fd8a60405160405180910390a25050565b600460009054906101000a900473ffffffffffffffffffffffffffffffffffffffff1673ffffffffffffffffffffffffffffffffffffffff163373ffffffffffffffffffffffffffffffffffffffff1614610586576040517f08c379a000000000000000000000000000000000000000000000000000000000815260040161057d9061137c565b60405180910390fd5b600460009054906101000a900473ffffffffffffffffffffffffffffffffffffffff1673ffffffffffffffffffffffffffffffffffffffff166108fc479081150290604051600060405180830381858888f193505050501580156105ee573d6000803e3d6000fd5b50565b6105f9610f06565b60006001600083815260200190815260200160002090508060040160009054906101000a900460ff16610661576040517f08c379a0000000000000000000000000000000000000000000000000000000008152600401610658906112a4565b60405180910390fd5b80600301543410156106a8576040517f08c379a000000000000000000000000000000000000000000000000000000000815260040161069f906113e8565b60405180910390fd5b60008160040160006101000a81548160ff021916908315150217905550600061271060035483600301546106dc9190611437565b6106e691906114a8565b905060008183600301546106fa91906114d9565b90508260010160009054906101000a900473ffffffffffffffffffffffffffffffffffffffff1673ffffffffffffffffffffffffffffffffffffffff166323b872dd8460000160009054906101000a900473ffffffffffffffffffffffffffffffffffffffff163386600201546040518463ffffffff1660e01b81526004016107859392919061150d565b600060405180830381600087803b15801561079f57600080fd5b505af11580156107b3573d6000803e3d6000fd5b505050508260000160009054906101000a900473ffffffffffffffffffffffffffffffffffffffff1673ffffffffffffffffffffffffffffffffffffffff166108fc829081150290604051600060405180830381858888f19350505050158015610821573d6000803e3d6000fd5b508260030154341115610885573373ffffffffffffffffffffffffffffffffffffffff166108fc84600301543461085891906114d9565b9081150290604051600060405180830381858888f19350505050158015610883573d6000803e3d6000fd5b505b8260000160009054906101000a900473ffffffffffffffffffffffffffffffffffffffff1673ffffffffffffffffffffffffffffffffffffffff163373ffffffffffffffffffffffffffffffffffffffff16857f8562eb94748e30bb0071e932744ce902b460c683474fcb3bfd567ffa16b1afb2866003015460405161090b919061114b565b60405180910390a450505061091e610f55565b50565b600460009054906101000a900473ffffffffffffffffffffffffffffffffffffffff1681565b600460009054906101000a900473ffffffffffffffffffffffffffffffffffffffff1673ffffffffffffffffffffffffffffffffffffffff163373ffffffffffffffffffffffffffffffffffffffff16146109d7576040517f08c379a00000000000000000000000000000000000000000000000000000000081526004016109ce9061137c565b60405180910390fd5b6103e8811115610a1c576040517f08c379a0000000000000000000000000000000000000000000000000000000008152600401610a1390611590565b60405180910390fd5b8060038190555050565b60025481565b60008111610a6f576040517f08c379a0000000000000000000000000000000000000000000000000000000008152600401610a66906115fc565b60405180910390fd5b60008390503373ffffffffffffffffffffffffffffffffffffffff168173ffffffffffffffffffffffffffffffffffffffff16636352211e856040518263ffffffff1660e01b8152600401610ac4919061114b565b602060405180830381865afa158015610ae1573d6000803e3d6000fd5b505050506040513d601f19601f82011682018060405250810190610b059190611631565b73ffffffffffffffffffffffffffffffffffffffff1614610b5b576040517f08c379a0000000000000000000000000000000000000000000000000000000008152600401610b52906116aa565b60405180910390fd5b3073ffffffffffffffffffffffffffffffffffffffff168173ffffffffffffffffffffffffffffffffffffffff1663081812fc856040518263ffffffff1660e01b8152600401610bab919061114b565b602060405180830381865afa158015610bc8573d6000803e3d6000fd5b505050506040513d601f19601f82011682018060405250810190610bec9190611631565b73ffffffffffffffffffffffffffffffffffffffff161480610c8657508073ffffffffffffffffffffffffffffffffffffffff1663e985e9c533306040518363ffffffff1660e01b8152600401610c449291906116ca565b602060405180830381865afa158015610c61573d6000803e3d6000fd5b505050506040513d601f19601f82011682018060405250810190610c85919061171f565b5b610cc5576040517f08c379a0000000000000000000000000000000000000000000000000000000008152600401610cbc90611798565b60405180910390fd5b6040518060a001604052803373ffffffffffffffffffffffffffffffffffffffff1681526020018573ffffffffffffffffffffffffffffffffffffffff1681526020018481526020018381526020016001151581525060016000600254815260200190815260200160002060008201518160000160006101000a81548173ffffffffffffffffffffffffffffffffffffffff021916908373ffffffffffffffffffffffffffffffffffffffff16021790555060208201518160010160006101000a81548173ffffffffffffffffffffffffffffffffffffffff021916908373ffffffffffffffffffffffffffffffffffffffff160217905550604082015181600201556060820151816003015560808201518160040160006101000a81548160ff0219169083151502179055509050508373ffffffffffffffffffffffffffffffffffffffff163373ffffffffffffffffffffffffffffffffffffffff166002547fb0fe4922ac99799c17a4130d5c045ba2ecdf6e15b75b9ea84aaf0dc28724a42b8686604051610e579291906117b8565b60405180910390a460026000815480929190610e72906117e1565b919050555050505050565b60035481565b60016020528060005260406000206000915090508060000160009054906101000a900473ffffffffffffffffffffffffffffffffffffffff16908060010160009054906101000a900473ffffffffffffffffffffffffffffffffffffffff16908060020154908060030154908060040160009054906101000a900460ff16905085565b600260005403610f4b576040517f08c379a0000000000000000000000000000000000000000000000000000000008152600401610f4290611875565b60405180910390fd5b6002600081905550565b6001600081905550565b6040518060a00160405280600073ffffffffffffffffffffffffffffffffffffffff168152602001600073ffffffffffffffffffffffffffffffffffffffff16815260200160008152602001600081526020016000151581525090565b600080fd5b6000819050919050565b610fd481610fc1565b8114610fdf57600080fd5b50565b600081359050610ff181610fcb565b92915050565b60006020828403121561100d5761100c610fbc565b5b600061101b84828501610fe2565b91505092915050565b600073ffffffffffffffffffffffffffffffffffffffff82169050919050565b600061104f82611024565b9050919050565b61105f81611044565b82525050565b61106e81610fc1565b82525050565b60008115159050919050565b61108981611074565b82525050565b60a0820160008201516110a56000850182611056565b5060208201516110b86020850182611056565b5060408201516110cb6040850182611065565b5060608201516110de6060850182611065565b5060808201516110f16080850182611080565b50505050565b600060a08201905061110c600083018461108f565b92915050565b61111b81611044565b82525050565b60006020820190506111366000830184611112565b92915050565b61114581610fc1565b82525050565b6000602082019050611160600083018461113c565b92915050565b61116f81611044565b811461117a57600080fd5b50565b60008135905061118c81611166565b92915050565b6000806000606084860312156111ab576111aa610fbc565b5b60006111b98682870161117d565b93505060206111ca86828701610fe2565b92505060406111db86828701610fe2565b9150509250925092565b6111ee81611074565b82525050565b600060a0820190506112096000830188611112565b6112166020830187611112565b611223604083018661113c565b611230606083018561113c565b61123d60808301846111e5565b9695505050505050565b600082825260208201905092915050565b7f4c697374696e67206e6f74206163746976650000000000000000000000000000600082015250565b600061128e601283611247565b915061129982611258565b602082019050919050565b600060208201905081810360008301526112bd81611281565b9050919050565b7f4e6f742073656c6c657200000000000000000000000000000000000000000000600082015250565b60006112fa600a83611247565b9150611305826112c4565b602082019050919050565b60006020820190508181036000830152611329816112ed565b9050919050565b7f4e6f74206f776e65720000000000000000000000000000000000000000000000600082015250565b6000611366600983611247565b915061137182611330565b602082019050919050565b6000602082019050818103600083015261139581611359565b9050919050565b7f496e73756666696369656e74207061796d656e74000000000000000000000000600082015250565b60006113d2601483611247565b91506113dd8261139c565b602082019050919050565b60006020820190508181036000830152611401816113c5565b9050919050565b7f4e487b7100000000000000000000000000000000000000000000000000000000600052601160045260246000fd5b600061144282610fc1565b915061144d83610fc1565b925082820261145b81610fc1565b9150828204841483151761147257611471611408565b5b5092915050565b7f4e487b7100000000000000000000000000000000000000000000000000000000600052601260045260246000fd5b60006114b382610fc1565b91506114be83610fc1565b9250826114ce576114cd611479565b5b828204905092915050565b60006114e482610fc1565b91506114ef83610fc1565b925082820390508181111561150757611506611408565b5b92915050565b60006060820190506115226000830186611112565b61152f6020830185611112565b61153c604083018461113c565b949350505050565b7f46656520746f6f20686967680000000000000000000000000000000000000000600082015250565b600061157a600c83611247565b915061158582611544565b602082019050919050565b600060208201905081810360008301526115a98161156d565b9050919050565b7f5072696365206d7573742062652067726561746572207468616e203000000000600082015250565b60006115e6601c83611247565b91506115f1826115b0565b602082019050919050565b60006020820190508181036000830152611615816115d9565b9050919050565b60008151905061162b81611166565b92915050565b60006020828403121561164757611646610fbc565b5b60006116558482850161161c565b91505092915050565b7f4e6f7420746f6b656e206f776e65720000000000000000000000000000000000600082015250565b6000611694600f83611247565b915061169f8261165e565b602082019050919050565b600060208201905081810360008301526116c381611687565b9050919050565b60006040820190506116df6000830185611112565b6116ec6020830184611112565b9392505050565b6116fc81611074565b811461170757600080fd5b50565b600081519050611719816116f3565b92915050565b60006020828403121561173557611734610fbc565b5b60006117438482850161170a565b91505092915050565b7f436f6e7472616374206e6f7420617070726f7665640000000000000000000000600082015250565b6000611782601583611247565b915061178d8261174c565b602082019050919050565b600060208201905081810360008301526117b181611775565b9050919050565b60006040820190506117cd600083018561113c565b6117da602083018461113c565b9392505050565b60006117ec82610fc1565b91507fffffffffffffffffffffffffffffffffffffffffffffffffffffffffffffffff820361181e5761181d611408565b5b600182019050919050565b7f5265656e7472616e637947756172643a207265656e7472616e742063616c6c00600082015250565b600061185f601f83611247565b915061186a82611829565b602082019050919050565b6000602082019050818103600083015261188e81611852565b905091905056fea2646970667358221220433cc1ba30ae9f86bc3818573ac30ba5e468053295818ecec5b3c6bd79fa29bb64736f6c63430008130033",
  "linkReferences": {},
  "deployedLinkReferences": {}
}