{
  "_format": "hh-sol-artifact-1",
  "contractName": "SimpleNFT",
  "sourceName": "contracts/SimpleNFT.sol",
  "abi": [
    {
      "inputs": [],
      "stateMutability": "nonpayable",
      "type": "constructor"
    },
    {
      "anonymous": false,
      "inputs": [
        {
          "indexed": true,
          "internalType": "address",
          "name": "owner",
          "type": "address"
        },
        {
          "indexed": true,
          "internalType": "address",
          "name": "approved",
          "type": "address"
        },
        {
          "indexed": true,
          "internalType": "uint256",
          "name": "tokenId",
          "type": "uint256"
        }
      ],
      "name": "Approval",
      "type": "event"
    },
    {
      "anonymous": false,
      "inputs": [
        {
          "indexed": true,
          "internalType": "address",
          "name": "owner",
          "type": "address"
        },
        {
          "indexed": true,
          "internalType": "address",
          "name": "operator",
          "type": "address"
        },
        {
          "indexed": false,
          "internalType": "bool",
          "name": "approved",
          "type": "bool"
        }
      ],
      "name": "ApprovalForAll",
      "type": "event"
    },
    {
      "anonymous": false,
      "inputs": [
        {
          "indexed": true,
          "internalType": "address",
          "name": "from",
          "type": "address"
        },
        {
          "indexed": true,
          "internalType": "address",
          "name": "to",
          "type": "address"
        },
        {
          "indexed": true,
          "internalType": "uint256",
          "name": "tokenId",
          "type": "uint256"
        }
      ],
      "name": "Transfer",
      "type": "event"
    },
    {
      "inputs": [
        {
          "internalType": "address",
          "name": "to",
          "type": "address"
        },
        {
          "internalType": "uint256",
          "name": "tokenId",
          "type": "uint256"
        }
      ],
      "name": "approve",
      "outputs": [],
      "stateMutability": "nonpayable",
      "type": "function"
    },
    {
      "inputs": [
        {
          "internalType": "address",
          "name": "owner",
          "type": "address"
        }
      ],
      "name": "balanceOf",
      "outputs": [
        {
          "internalType": "uint256",
          "name": "",
          "type": "uint256"
        }
      ],
      "stateMutability": "view",
      "type": "function"
    },
    {
      "inputs": [
        {
          "internalType": "uint256",
          "name": "tokenId",
          "type": "uint256"
        }
      ],
      "name": "getApproved",
      "outputs": [
        {
          "internalType": "address",
          "name": "",
          "type": "address"
        }
      ],
      "stateMutability": "view",
      "type": "function"
    },
    {
      "inputs": [
        {
          "internalType": "address",
          "name": "owner",
          "type": "address"
        },
        {
          "internalType": "address",
          "name": "operator",
          "type": "address"
        }
      ],
      "name": "isApprovedForAll",
      "outputs": [
        {
          "internalType": "bool",
          "name": "",
          "type": "bool"
        }
      ],
      "stateMutability": "view",
      "type": "function"
    },
    {
      "inputs": [
        {
          "internalType": "address",
          "name": "to",
          "type": "address"
        }
      ],
      "name": "mint",
      "outputs": [
        {
          "internalType": "uint256",
          "name": "",
          "type": "uint256"
        }
      ],
      "stateMutability": "nonpayable",
      "type": "function"
    },
    {
      "inputs": [],
      "name": "name",
      "outputs": [
        {
          "internalType": "string",
          "name": "",
          "type": "string"
        }
      ],
      "stateMutability": "view",
      "type": "function"
    },
    {
      "inputs": [
        {
          "internalType": "uint256",
          "name": "tokenId",
          "type": "uint256"
        }
      ],
      "name": "ownerOf",
      "outputs": [
        {
          "internalType": "address",
          "name": "",
          "type": "address"
        }
      ],
      "stateMutability": "view",
      "type": "function"
    },
    {
      "inputs": [
        {
          "internalType": "address",
          "name": "from",
          "type": "address"
        },
        {
          "internalType": "address",
          "name": "to",
          "type": "address"
        },
        {
          "internalType": "uint256",
          "name": "tokenId",
          "type": "uint256"
        }
      ],
      "name": "safeTransferFrom",
      "outputs": [],
      "stateMutability": "nonpayable",
      "type": "function"
    },
    {
      "inputs": [
        {
          "internalType": "address",
          "name": "from",
          "type": "address"
        },
        {
          "internalType": "address",
          "name": "to",
          "type": "address"
        },
        {
          "internalType": "uint256",
          "name": "tokenId",
          "type": "uint256"
        },
        {
          "internalType": "bytes",
          "name": "data",
          "type": "bytes"
        }
      ],
      "name": "safeTransferFrom",
      "outputs": [],
      "stateMutability": "nonpayable",
      "type": "function"
    },
    {
      "inputs": [
        {
          "internalType": "address",
          "name": "operator",
          "type": "address"
        },
        {
          "internalType": "bool",
          "name": "approved",
          "type": "bool"
        }
      ],
      "name": "setApprovalForAll",
      "outputs": [],
      "stateMutability": "nonpayable",
      "type": "function"
    },
    {
      "inputs": [
        {
          "internalType": "bytes4",
          "name": "interfaceId",
          "type": "bytes4"
        }
      ],
      "name": "supportsInterface",
      "outputs": [
        {
          "internalType": "bool",
          "name": "",
          "type": "bool"
        }
      ],
      "stateMutability": "view",
      "type": "function"
    },
    {
      "inputs": [],
      "name": "symbol",
      "outputs": [
        {
          "internalType": "string",
          "name": "",
          "type": "string"
        }
      ],
      "stateMutability": "view",
      "type": "function"
    },
    {
      "inputs": [
        {
          "internalType": "uint256",
          "name": "tokenId",
          "type": "uint256"
        }
      ],
      "name": "tokenURI",
      "outputs": [
        {
          "internalType": "string",
          "name": "",
          "type": "string"
        }
      ],
      "stateMutability": "view",
      "type": "function"
    },
    {
      "inputs": [],
      "name": "totalSupply",
      "outputs": [
        {
          "internalType": "uint256",
          "name": "",
          "type": "uint256"
        }
      ],
      "stateMutability": "view",
      "type": "function"
    },
    {
      "inputs": [
        {
          "internalType": "address",
          "name": "from",
          "type": "address"
        },
        {
          "internalType": "address",
          "name": "to",
          "type": "address"
        },
        {
          "internalType": "uint256",
          "name": "tokenId",
          "type": "uint256"
        }
      ],
      "name": "transferFrom",
      "outputs": [],
      "stateMutability": "nonpayable",
      "type": "function"
    }
  ],
  "bytecode": "0x60806040523480156200001157600080fd5b506040518060400160405280600981526020017f53696d706c654e465400000000000000000000000000000000000000000000008152506040518060400160405280600481526020017f534e46540000000000000000000000000000000000000000000000000000000081525081600090816200008f919062000324565b508060019081620000a1919062000324565b5050506200040b565b600081519050919050565b7f4e487b7100000000000000000000000000000000000000000000000000000000600052604160045260246000fd5b7f4e487b7100000000000000000000000000000000000000000000000000000000600052602260045260246000fd5b600060028204905060018216806200012c57607f821691505b602082108103620001425762000141620000e4565b5b50919050565b60008190508160005260206000209050919050565b60006020601f8301049050919050565b600082821b905092915050565b600060088302620001ac7fffffffffffffffffffffffffffffffffffffffffffffffffffffffffffffffff826200016d565b620001b886836200016d565b95508019841693508086168417925050509392505050565b6000819050919050565b6000819050919050565b600062000205620001ff620001f984620001d0565b620001da565b620001d0565b9050919050565b6000819050919050565b6200022183620001e4565b6200023962000230826200020c565b8484546200017a565b825550505050565b600090565b6200025062000241565b6200025d81848462000216565b505050565b5b8181101562000285576200027960008262000246565b60018101905062000263565b5050565b601f821115620002d4576200029e8162000148565b620002a9846200015d565b81016020851015620002b9578190505b620002d1620002c8856200015d565b83018262000262565b50505b505050565b600082821c905092915050565b6000620002f960001984600802620002d9565b1980831691505092915050565b6000620003148383620002e6565b9150826002028217905092915050565b6200032f82620000aa565b67ffffffffffffffff8111156200034b576200034a620000b5565b5b62000357825462000113565b6200036482828562000289565b600060209050601f8311600181146200039c576000841562000387578287015190505b62000393858262000306565b86555062000403565b601f198416620003ac8662000148565b60005b82811015620003d657848901518255600182019150602085019450602081019050620003af565b86831015620003f65784890151620003f2601f891682620002e6565b8355505b6001600288020188555050505b505050505050565b6124eb806200041b6000396000f3fe608060405234801561001057600080fd5b50600436106100f55760003560e01c80636352211e11610097578063a22cb46511610066578063a22cb46514610298578063b88d4fde146102b4578063c87b56dd146102d0578063e985e9c514610300576100f5565b80636352211e146101ea5780636a6278421461021a57806370a082311461024a57806395d89b411461027a576100f5565b8063095ea7b3116100d3578063095ea7b31461017857806318160ddd1461019457806323b872dd146101b257806342842e0e146101ce576100f5565b806301ffc9a7146100fa57806306fdde031461012a578063081812fc14610148575b600080fd5b610114600480360381019061010f91906117e7565b610330565b604051610121919061182f565b60405180910390f35b610132610412565b60405161013f91906118da565b60405180910390f35b610162600480360381019061015d9190611932565b6104a4565b60405161016f91906119a0565b60405180910390f35b610192600480360381019061018d91906119e7565b6104ea565b005b61019c610601565b6040516101a99190611a36565b60405180910390f35b6101cc60048036038101906101c79190611a51565b610612565b005b6101e860048036038101906101e39190611a51565b610672565b005b61020460048036038101906101ff9190611932565b610692565b60405161021191906119a0565b60405180910390f35b610234600480360381019061022f9190611aa4565b610718565b6040516102419190611a36565b60405180910390f35b610264600480360381019061025f9190611aa4565b610745565b6040516102719190611a36565b60405180910390f35b6102826107fc565b60405161028f91906118da565b60405180910390f35b6102b260048036038101906102ad9190611afd565b61088e565b005b6102ce60048036038101906102c99190611c72565b6108a4565b005b6102ea60048036038101906102e59190611932565b610906565b6040516102f791906118da565b60405180910390f35b61031a60048036038101906103159190611cf5565b61096e565b604051610327919061182f565b60405180910390f35b60007f80ac58cd000000000000000000000000000000000000000000000000000000007bffffffffffffffffffffffffffffffffffffffffffffffffffffffff1916827bffffffffffffffffffffffffffffffffffffffffffffffffffffffff191614806103fb57507f5b5e139f000000000000000000000000000000000000000000000000000000007bffffffffffffffffffffffffffffffffffffffffffffffffffffffff1916827bffffffffffffffffffffffffffffffffffffffffffffffffffffffff1916145b8061040b575061040a82610a02565b5b9050919050565b60606000805461042190611d64565b80601f016020809104026020016040519081016040528092919081815260200182805461044d90611d64565b801561049a5780601f1061046f5761010080835404028352916020019161049a565b820191906000526020600020905b81548152906001019060200180831161047d57829003601f168201915b5050505050905090565b60006104af82610a6c565b6004600083815260200190815260200160002060009054906101000a900473ffffffffffffffffffffffffffffffffffffffff169050919050565b60006104f582610692565b90508073ffffffffffffffffffffffffffffffffffffffff168373ffffffffffffffffffffffffffffffffffffffff1603610565576040517f08c379a000000000000000000000000000000000000000000000000000000000815260040161055c90611e07565b60405180910390fd5b8073ffffffffffffffffffffffffffffffffffffffff16610584610ab7565b73ffffffffffffffffffffffffffffffffffffffff1614806105b357506105b2816105ad610ab7565b61096e565b5b6105f2576040517f08c379a00000000000000000000000000000000000000000000000000000000081526004016105e990611e99565b60405180910390fd5b6105fc8383610abf565b505050565b600061060d6006610b78565b905090565b61062361061d610ab7565b82610b86565b610662576040517f08c379a000000000000000000000000000000000000000000000000000000000815260040161065990611f2b565b60405180910390fd5b61066d838383610c1b565b505050565b61068d838383604051806020016040528060008152506108a4565b505050565b60008061069e83610f14565b9050600073ffffffffffffffffffffffffffffffffffffffff168173ffffffffffffffffffffffffffffffffffffffff160361070f576040517f08c379a000000000000000000000000000000000000000000000000000000000815260040161070690611f97565b60405180910390fd5b80915050919050565b60006107246006610f51565b60006107306006610b78565b905061073c8382610f67565b80915050919050565b60008073ffffffffffffffffffffffffffffffffffffffff168273ffffffffffffffffffffffffffffffffffffffff16036107b5576040517f08c379a00000000000000000000000000000000000000000000000000000000081526004016107ac90612029565b60405180910390fd5b600360008373ffffffffffffffffffffffffffffffffffffffff1673ffffffffffffffffffffffffffffffffffffffff168152602001908152602001600020549050919050565b60606001805461080b90611d64565b80601f016020809104026020016040519081016040528092919081815260200182805461083790611d64565b80156108845780601f1061085957610100808354040283529160200191610884565b820191906000526020600020905b81548152906001019060200180831161086757829003601f168201915b5050505050905090565b6108a0610899610ab7565b8383611184565b5050565b6108b56108af610ab7565b83610b86565b6108f4576040517f08c379a00000000000000000000000000000000000000000000000000000000081526004016108eb90611f2b565b60405180910390fd5b610900848484846112f0565b50505050565b606061091182610a6c565b600061091b61134c565b9050600081511161093b5760405180602001604052806000815250610966565b8061094584611363565b604051602001610956929190612085565b6040516020818303038152906040525b915050919050565b6000600560008473ffffffffffffffffffffffffffffffffffffffff1673ffffffffffffffffffffffffffffffffffffffff16815260200190815260200160002060008373ffffffffffffffffffffffffffffffffffffffff1673ffffffffffffffffffffffffffffffffffffffff16815260200190815260200160002060009054906101000a900460ff16905092915050565b60007f01ffc9a7000000000000000000000000000000000000000000000000000000007bffffffffffffffffffffffffffffffffffffffffffffffffffffffff1916827bffffffffffffffffffffffffffffffffffffffffffffffffffffffff1916149050919050565b610a7581611431565b610ab4576040517f08c379a0000000000000000000000000000000000000000000000000000000008152600401610aab90611f97565b60405180910390fd5b50565b600033905090565b816004600083815260200190815260200160002060006101000a81548173ffffffffffffffffffffffffffffffffffffffff021916908373ffffffffffffffffffffffffffffffffffffffff160217905550808273ffffffffffffffffffffffffffffffffffffffff16610b3283610692565b73ffffffffffffffffffffffffffffffffffffffff167f8c5be1e5ebec7d5bd14f71427d1e84f3dd0314c0f7b2291e5b200ac8c7c3b92560405160405180910390a45050565b600081600001549050919050565b600080610b9283610692565b90508073ffffffffffffffffffffffffffffffffffffffff168473ffffffffffffffffffffffffffffffffffffffff161480610bd45750610bd3818561096e565b5b80610c1257508373ffffffffffffffffffffffffffffffffffffffff16610bfa846104a4565b73ffffffffffffffffffffffffffffffffffffffff16145b91505092915050565b8273ffffffffffffffffffffffffffffffffffffffff16610c3b82610692565b73ffffffffffffffffffffffffffffffffffffffff1614610c91576040517f08c379a0000000000000000000000000000000000000000000000000000000008152600401610c889061211b565b60405180910390fd5b600073ffffffffffffffffffffffffffffffffffffffff168273ffffffffffffffffffffffffffffffffffffffff1603610d00576040517f08c379a0000000000000000000000000000000000000000000000000000000008152600401610cf7906121ad565b60405180910390fd5b610d0d8383836001611472565b8273ffffffffffffffffffffffffffffffffffffffff16610d2d82610692565b73ffffffffffffffffffffffffffffffffffffffff1614610d83576040517f08c379a0000000000000000000000000000000000000000000000000000000008152600401610d7a9061211b565b60405180910390fd5b6004600082815260200190815260200160002060006101000a81549073ffffffffffffffffffffffffffffffffffffffff02191690556001600360008573ffffffffffffffffffffffffffffffffffffffff1673ffffffffffffffffffffffffffffffffffffffff168152602001908152602001600020600082825403925050819055506001600360008473ffffffffffffffffffffffffffffffffffffffff1673ffffffffffffffffffffffffffffffffffffffff16815260200190815260200160002060008282540192505081905550816002600083815260200190815260200160002060006101000a81548173ffffffffffffffffffffffffffffffffffffffff021916908373ffffffffffffffffffffffffffffffffffffffff160217905550808273ffffffffffffffffffffffffffffffffffffffff168473ffffffffffffffffffffffffffffffffffffffff167fddf252ad1be2c89b69c2b068fc378daa952ba7f163c4a11628f55a4df523b3ef60405160405180910390a4610f0f8383836001611478565b505050565b60006002600083815260200190815260200160002060009054906101000a900473ffffffffffffffffffffffffffffffffffffffff169050919050565b6001816000016000828254019250508190555050565b600073ffffffffffffffffffffffffffffffffffffffff168273ffffffffffffffffffffffffffffffffffffffff1603610fd6576040517f08c379a0000000000000000000000000000000000000000000000000000000008152600401610fcd90612219565b60405180910390fd5b610fdf81611431565b1561101f576040517f08c379a000000000000000000000000000000000000000000000000000000000815260040161101690612285565b60405180910390fd5b61102d600083836001611472565b61103681611431565b15611076576040517f08c379a000000000000000000000000000000000000000000000000000000000815260040161106d90612285565b60405180910390fd5b6001600360008473ffffffffffffffffffffffffffffffffffffffff1673ffffffffffffffffffffffffffffffffffffffff16815260200190815260200160002060008282540192505081905550816002600083815260200190815260200160002060006101000a81548173ffffffffffffffffffffffffffffffffffffffff021916908373ffffffffffffffffffffffffffffffffffffffff160217905550808273ffffffffffffffffffffffffffffffffffffffff16600073ffffffffffffffffffffffffffffffffffffffff167fddf252ad1be2c89b69c2b068fc378daa952ba7f163c4a11628f55a4df523b3ef60405160405180910390a4611180600083836001611478565b5050565b8173ffffffffffffffffffffffffffffffffffffffff168373ffffffffffffffffffffffffffffffffffffffff16036111f2576040517f08c379a00000000000000000000000000000000000000000000000000000000081526004016111e9906122f1565b60405180910390fd5b80600560008573ffffffffffffffffffffffffffffffffffffffff1673ffffffffffffffffffffffffffffffffffffffff16815260200190815260200160002060008473ffffffffffffffffffffffffffffffffffffffff1673ffffffffffffffffffffffffffffffffffffffff16815260200190815260200160002060006101000a81548160ff0219169083151502179055508173ffffffffffffffffffffffffffffffffffffffff168373ffffffffffffffffffffffffffffffffffffffff167f17307eab39ab6107e8899845ad3d59bd9653f200f220920489ca2b5937696c31836040516112e3919061182f565b60405180910390a3505050565b6112fb848484610c1b565b6113078484848461147e565b611346576040517f08c379a000000000000000000000000000000000000000000000000000000000815260040161133d90612383565b60405180910390fd5b50505050565b606060405180602001604052806000815250905090565b60606000600161137284611605565b01905060008167ffffffffffffffff81111561139157611390611b47565b5b6040519080825280601f01601f1916602001820160405280156113c35781602001600182028036833780820191505090505b509050600082602001820190505b600115611426578080600190039150507f3031323334353637383961626364656600000000000000000000000000000000600a86061a8153600a858161141a576114196123a3565b5b049450600085036113d1575b819350505050919050565b60008073ffffffffffffffffffffffffffffffffffffffff1661145383610f14565b73ffffffffffffffffffffffffffffffffffffffff1614159050919050565b50505050565b50505050565b600061149f8473ffffffffffffffffffffffffffffffffffffffff16611758565b156115f8578373ffffffffffffffffffffffffffffffffffffffff1663150b7a026114c8610ab7565b8786866040518563ffffffff1660e01b81526004016114ea9493929190612427565b6020604051808303816000875af192505050801561152657506040513d601f19601f820116820180604052508101906115239190612488565b60015b6115a8573d8060008114611556576040519150601f19603f3d011682016040523d82523d6000602084013e61155b565b606091505b5060008151036115a0576040517f08c379a000000000000000000000000000000000000000000000000000000000815260040161159790612383565b60405180910390fd5b805181602001fd5b63150b7a0260e01b7bffffffffffffffffffffffffffffffffffffffffffffffffffffffff1916817bffffffffffffffffffffffffffffffffffffffffffffffffffffffff1916149150506115fd565b600190505b949350505050565b600080600090507a184f03e93ff9f4daa797ed6e38ed64bf6a1f0100000000000000008310611663577a184f03e93ff9f4daa797ed6e38ed64bf6a1f0100000000000000008381611659576116586123a3565b5b0492506040810190505b6d04ee2d6d415b85acef810000000083106116a0576d04ee2d6d415b85acef81000000008381611696576116956123a3565b5b0492506020810190505b662386f26fc1000083106116cf57662386f26fc1000083816116c5576116c46123a3565b5b0492506010810190505b6305f5e10083106116f8576305f5e10083816116ee576116ed6123a3565b5b0492506008810190505b612710831061171d576127108381611713576117126123a3565b5b0492506004810190505b606483106117405760648381611736576117356123a3565b5b0492506002810190505b600a831061174f576001810190505b80915050919050565b6000808273ffffffffffffffffffffffffffffffffffffffff163b119050919050565b6000604051905090565b600080fd5b600080fd5b60007fffffffff0000000000000000000000000000000000000000000000000000000082169050919050565b6117c48161178f565b81146117cf57600080fd5b50565b6000813590506117e1816117bb565b92915050565b6000602082840312156117fd576117fc611785565b5b600061180b848285016117d2565b91505092915050565b60008115159050919050565b61182981611814565b82525050565b60006020820190506118446000830184611820565b92915050565b600081519050919050565b600082825260208201905092915050565b60005b83811015611884578082015181840152602081019050611869565b60008484015250505050565b6000601f19601f8301169050919050565b60006118ac8261184a565b6118b68185611855565b93506118c6818560208601611866565b6118cf81611890565b840191505092915050565b600060208201905081810360008301526118f481846118a1565b905092915050565b6000819050919050565b61190f816118fc565b811461191a57600080fd5b50565b60008135905061192c81611906565b92915050565b60006020828403121561194857611947611785565b5b60006119568482850161191d565b91505092915050565b600073ffffffffffffffffffffffffffffffffffffffff82169050919050565b600061198a8261195f565b9050919050565b61199a8161197f565b82525050565b60006020820190506119b56000830184611991565b92915050565b6119c48161197f565b81146119cf57600080fd5b50565b6000813590506119e1816119bb565b92915050565b600080604083850312156119fe576119fd611785565b5b6000611a0c858286016119d2565b9250506020611a1d8582860161191d565b9150509250929050565b611a30816118fc565b82525050565b6000602082019050611a4b6000830184611a27565b92915050565b600080600060608486031215611a6a57611a69611785565b5b6000611a78868287016119d2565b9350506020611a89868287016119d2565b9250506040611a9a8682870161191d565b9150509250925092565b600060208284031215611aba57611ab9611785565b5b6000611ac8848285016119d2565b91505092915050565b611ada81611814565b8114611ae557600080fd5b50565b600081359050611af781611ad1565b92915050565b60008060408385031215611b1457611b13611785565b5b6000611b22858286016119d2565b9250506020611b3385828601611ae8565b9150509250929050565b600080fd5b600080fd5b7f4e487b7100000000000000000000000000000000000000000000000000000000600052604160045260246000fd5b611b7f82611890565b810181811067ffffffffffffffff82111715611b9e57611b9d611b47565b5b80604052505050565b6000611bb161177b565b9050611bbd8282611b76565b919050565b600067ffffffffffffffff821115611bdd57611bdc611b47565b5b611be682611890565b9050602081019050919050565b82818337600083830152505050565b6000611c15611c1084611bc2565b611ba7565b905082815260208101848484011115611c3157611c30611b42565b5b611c3c848285611bf3565b509392505050565b600082601f830112611c5957611c58611b3d565b5b8135611c69848260208601611c02565b91505092915050565b60008060008060808587031215611c8c57611c8b611785565b5b6000611c9a878288016119d2565b9450506020611cab878288016119d2565b9350506040611cbc8782880161191d565b925050606085013567ffffffffffffffff811115611cdd57611cdc61178a565b5b611ce987828801611c44565b91505092959194509250565b60008060408385031215611d0c57611d0b611785565b5b6000611d1a858286016119d2565b9250506020611d2b858286016119d2565b9150509250929050565b7f4e487b7100000000000000000000000000000000000000000000000000000000600052602260045260246000fd5b60006002820490506001821680611d7c57607f821691505b602082108103611d8f57611d8e611d35565b5b50919050565b7f4552433732313a20617070726f76616c20746f2063757272656e74206f776e6560008201527f7200000000000000000000000000000000000000000000000000000000000000602082015250565b6000611df1602183611855565b9150611dfc82611d95565b604082019050919050565b60006020820190508181036000830152611e2081611de4565b9050919050565b7f4552433732313a20617070726f76652063616c6c6572206973206e6f7420746f60008201527f6b656e206f776e6572206f7220617070726f76656420666f7220616c6c000000602082015250565b6000611e83603d83611855565b9150611e8e82611e27565b604082019050919050565b60006020820190508181036000830152611eb281611e76565b9050919050565b7f4552433732313a2063616c6c6572206973206e6f7420746f6b656e206f776e6560008201527f72206f7220617070726f76656400000000000000000000000000000000000000602082015250565b6000611f15602d83611855565b9150611f2082611eb9565b604082019050919050565b60006020820190508181036000830152611f4481611f08565b9050919050565b7f4552433732313a20696e76616c696420746f6b656e2049440000000000000000600082015250565b6000611f81601883611855565b9150611f8c82611f4b565b602082019050919050565b60006020820190508181036000830152611fb081611f74565b9050919050565b7f4552433732313a2061646472657373207a65726f206973206e6f74206120766160008201527f6c6964206f776e65720000000000000000000000000000000000000000000000602082015250565b6000612013602983611855565b915061201e82611fb7565b604082019050919050565b6000602082019050818103600083015261204281612006565b9050919050565b600081905092915050565b600061205f8261184a565b6120698185612049565b9350612079818560208601611866565b80840191505092915050565b60006120918285612054565b915061209d8284612054565b91508190509392505050565b7f4552433732313a207472616e736665722066726f6d20696e636f72726563742060008201527f6f776e6572000000000000000000000000000000000000000000000000000000602082015250565b6000612105602583611855565b9150612110826120a9565b604082019050919050565b60006020820190508181036000830152612134816120f8565b9050919050565b7f4552433732313a207472616e7366657220746f20746865207a65726f2061646460008201527f7265737300000000000000000000000000000000000000000000000000000000602082015250565b6000612197602483611855565b91506121a28261213b565b604082019050919050565b600060208201905081810360008301526121c68161218a565b9050919050565b7f4552433732313a206d696e7420746f20746865207a65726f2061646472657373600082015250565b6000612203602083611855565b915061220e826121cd565b602082019050919050565b60006020820190508181036000830152612232816121f6565b9050919050565b7f4552433732313a20746f6b656e20616c7265616479206d696e74656400000000600082015250565b600061226f601c83611855565b915061227a82612239565b602082019050919050565b6000602082019050818103600083015261229e81612262565b9050919050565b7f4552433732313a20617070726f766520746f2063616c6c657200000000000000600082015250565b60006122db601983611855565b91506122e6826122a5565b602082019050919050565b6000602082019050818103600083015261230a816122ce565b9050919050565b7f4552433732313a207472616e7366657220746f206e6f6e20455243373231526560008201527f63656976657220696d706c656d656e7465720000000000000000000000000000602082015250565b600061236d603283611855565b915061237882612311565b604082019050919050565b6000602082019050818103600083015261239c81612360565b9050919050565b7f4e487b7100000000000000000000000000000000000000000000000000000000600052601260045260246000fd5b600081519050919050565b600082825260208201905092915050565b60006123f9826123d2565b61240381856123dd565b9350612413818560208601611866565b61241c81611890565b840191505092915050565b600060808201905061243c6000830187611991565b6124496020830186611991565b6124566040830185611a27565b818103606083015261246881846123ee565b905095945050505050565b600081519050612482816117bb565b92915050565b60006020828403121561249e5761249d611785565b5b60006124ac84828501612473565b9150509291505056fea2646970667358221220989bff297473cab74e40d65b157a46a221ad09d868ebeaa4a3538ac7042e9fe464736f6c63430008130033",
  "linkReferences": {},
  "deployedLinkReferences": {}
}